{
  "abi": [
    {
      "inputs": [
        {
          "internalType": "uint256",
          "name": "controllerGasLimit",
          "type": "uint256"
        }
      ],
      "stateMutability": "nonpayable",
      "type": "constructor"
    },
    {
      "inputs": [],
      "name": "CannotUpdateEmptyPosition",
      "type": "error"
    },
    {
      "inputs": [],
      "name": "CurrenciesInitializedOutOfOrder",
      "type": "error"
    },
    {
      "inputs": [],
      "name": "CurrencyNotSettled",
      "type": "error"
    },
    {
      "inputs": [],
      "name": "DelegateCallNotAllowed",
      "type": "error"
    },
    {
      "inputs": [
        {
          "internalType": "address",
          "name": "sender",
          "type": "address"
        },
        {
          "internalType": "uint256",
          "name": "balance",
          "type": "uint256"
        },
        {
          "internalType": "uint256",
          "name": "needed",
          "type": "uint256"
        },
        {
          "internalType": "uint256",
          "name": "tokenId",
          "type": "uint256"
        }
      ],
      "name": "ERC1155InsufficientBalance",
      "type": "error"
    },
    {
      "inputs": [
        {
          "internalType": "address",
          "name": "approver",
          "type": "address"
        }
      ],
      "name": "ERC1155InvalidApprover",
      "type": "error"
    },
    {
      "inputs": [
        {
          "internalType": "uint256",
          "name": "idsLength",
          "type": "uint256"
        },
        {
          "internalType": "uint256",
          "name": "valuesLength",
          "type": "uint256"
        }
      ],
      "name": "ERC1155InvalidArrayLength",
      "type": "error"
    },
    {
      "inputs": [
        {
          "internalType": "address",
          "name": "operator",
          "type": "address"
        }
      ],
      "name": "ERC1155InvalidOperator",
      "type": "error"
    },
    {
      "inputs": [
        {
          "internalType": "address",
          "name": "receiver",
          "type": "address"
        }
      ],
      "name": "ERC1155InvalidReceiver",
      "type": "error"
    },
    {
      "inputs": [
        {
          "internalType": "address",
          "name": "sender",
          "type": "address"
        }
      ],
      "name": "ERC1155InvalidSender",
      "type": "error"
    },
    {
      "inputs": [
        {
          "internalType": "address",
          "name": "operator",
          "type": "address"
        },
        {
          "internalType": "address",
          "name": "owner",
          "type": "address"
        }
      ],
      "name": "ERC1155MissingApprovalForAll",
      "type": "error"
    },
    {
      "inputs": [],
      "name": "ERC20TransferFailed",
      "type": "error"
    },
    {
      "inputs": [],
      "name": "FeeTooLarge",
      "type": "error"
    },
    {
      "inputs": [
        {
          "internalType": "address",
          "name": "hooks",
          "type": "address"
        }
      ],
      "name": "HookAddressNotValid",
      "type": "error"
    },
    {
      "inputs": [],
      "name": "InvalidCaller",
      "type": "error"
    },
    {
      "inputs": [],
      "name": "InvalidHookResponse",
      "type": "error"
    },
    {
      "inputs": [],
      "name": "InvalidSqrtRatio",
      "type": "error"
    },
    {
      "inputs": [],
      "name": "InvalidTick",
      "type": "error"
    },
    {
      "inputs": [
        {
          "internalType": "address",
          "name": "locker",
          "type": "address"
        }
      ],
      "name": "LockedBy",
      "type": "error"
    },
    {
      "inputs": [],
      "name": "MaxCurrenciesTouched",
      "type": "error"
    },
    {
      "inputs": [],
      "name": "NativeTransferFailed",
      "type": "error"
    },
    {
      "inputs": [],
      "name": "NoLiquidityToReceiveFees",
      "type": "error"
    },
    {
      "inputs": [],
      "name": "NotPoolManagerToken",
      "type": "error"
    },
    {
      "inputs": [],
      "name": "PoolAlreadyInitialized",
      "type": "error"
    },
    {
      "inputs": [],
      "name": "PoolNotInitialized",
      "type": "error"
    },
    {
      "inputs": [
        {
          "internalType": "uint160",
          "name": "sqrtPriceCurrentX96",
          "type": "uint160"
        },
        {
          "internalType": "uint160",
          "name": "sqrtPriceLimitX96",
          "type": "uint160"
        }
      ],
      "name": "PriceLimitAlreadyExceeded",
      "type": "error"
    },
    {
      "inputs": [
        {
          "internalType": "uint160",
          "name": "sqrtPriceLimitX96",
          "type": "uint160"
        }
      ],
      "name": "PriceLimitOutOfBounds",
      "type": "error"
    },
    {
      "inputs": [],
      "name": "ProtocolFeeCannotBeFetched",
      "type": "error"
    },
    {
      "inputs": [],
      "name": "SwapAmountCannotBeZero",
      "type": "error"
    },
    {
      "inputs": [
        {
          "internalType": "int24",
          "name": "tick",
          "type": "int24"
        }
      ],
      "name": "TickLiquidityOverflow",
      "type": "error"
    },
    {
      "inputs": [
        {
          "internalType": "int24",
          "name": "tickLower",
          "type": "int24"
        }
      ],
      "name": "TickLowerOutOfBounds",
      "type": "error"
    },
    {
      "inputs": [
        {
          "internalType": "int24",
          "name": "tick",
          "type": "int24"
        },
        {
          "internalType": "int24",
          "name": "tickSpacing",
          "type": "int24"
        }
      ],
      "name": "TickMisaligned",
      "type": "error"
    },
    {
      "inputs": [],
      "name": "TickSpacingTooLarge",
      "type": "error"
    },
    {
      "inputs": [],
      "name": "TickSpacingTooSmall",
      "type": "error"
    },
    {
      "inputs": [
        {
          "internalType": "int24",
          "name": "tickUpper",
          "type": "int24"
        }
      ],
      "name": "TickUpperOutOfBounds",
      "type": "error"
    },
    {
      "inputs": [
        {
          "internalType": "int24",
          "name": "tickLower",
          "type": "int24"
        },
        {
          "internalType": "int24",
          "name": "tickUpper",
          "type": "int24"
        }
      ],
      "name": "TicksMisordered",
      "type": "error"
    },
    {
      "anonymous": false,
      "inputs": [
        {
          "indexed": true,
          "internalType": "address",
          "name": "account",
          "type": "address"
        },
        {
          "indexed": true,
          "internalType": "address",
          "name": "operator",
          "type": "address"
        },
        {
          "indexed": false,
          "internalType": "bool",
          "name": "approved",
          "type": "bool"
        }
      ],
      "name": "ApprovalForAll",
      "type": "event"
    },
    {
      "anonymous": false,
      "inputs": [
        {
          "indexed": true,
          "internalType": "PoolId",
          "name": "id",
          "type": "bytes32"
        },
        {
          "indexed": false,
          "internalType": "uint8",
          "name": "hookSwapFee",
          "type": "uint8"
        },
        {
          "indexed": false,
          "internalType": "uint8",
          "name": "hookWithdrawFee",
          "type": "uint8"
        }
      ],
      "name": "HookFeeUpdated",
      "type": "event"
    },
    {
      "anonymous": false,
      "inputs": [
        {
          "indexed": true,
          "internalType": "PoolId",
          "name": "id",
          "type": "bytes32"
        },
        {
          "indexed": true,
          "internalType": "Currency",
          "name": "currency0",
          "type": "address"
        },
        {
          "indexed": true,
          "internalType": "Currency",
          "name": "currency1",
          "type": "address"
        },
        {
          "indexed": false,
          "internalType": "uint24",
          "name": "fee",
          "type": "uint24"
        },
        {
          "indexed": false,
          "internalType": "int24",
          "name": "tickSpacing",
          "type": "int24"
        },
        {
          "indexed": false,
          "internalType": "contract IHooks",
          "name": "hooks",
          "type": "address"
        }
      ],
      "name": "Initialize",
      "type": "event"
    },
    {
      "anonymous": false,
      "inputs": [
        {
          "indexed": true,
          "internalType": "PoolId",
          "name": "id",
          "type": "bytes32"
        },
        {
          "indexed": true,
          "internalType": "address",
          "name": "sender",
          "type": "address"
        },
        {
          "indexed": false,
          "internalType": "int24",
          "name": "tickLower",
          "type": "int24"
        },
        {
          "indexed": false,
          "internalType": "int24",
          "name": "tickUpper",
          "type": "int24"
        },
        {
          "indexed": false,
          "internalType": "int256",
          "name": "liquidityDelta",
          "type": "int256"
        }
      ],
      "name": "ModifyPosition",
      "type": "event"
    },
    {
      "anonymous": false,
      "inputs": [
        {
          "indexed": true,
          "internalType": "address",
          "name": "oldOwner",
          "type": "address"
        },
        {
          "indexed": true,
          "internalType": "address",
          "name": "newOwner",
          "type": "address"
        }
      ],
      "name": "OwnerChanged",
      "type": "event"
    },
    {
      "anonymous": false,
      "inputs": [
        {
          "indexed": false,
          "internalType": "address",
          "name": "protocolFeeController",
          "type": "address"
        }
      ],
      "name": "ProtocolFeeControllerUpdated",
      "type": "event"
    },
    {
      "anonymous": false,
      "inputs": [
        {
          "indexed": true,
          "internalType": "PoolId",
          "name": "id",
          "type": "bytes32"
        },
        {
          "indexed": false,
          "internalType": "uint8",
          "name": "protocolSwapFee",
          "type": "uint8"
        },
        {
          "indexed": false,
          "internalType": "uint8",
          "name": "protocolWithdrawFee",
          "type": "uint8"
        }
      ],
      "name": "ProtocolFeeUpdated",
      "type": "event"
    },
    {
      "anonymous": false,
      "inputs": [
        {
          "indexed": true,
          "internalType": "PoolId",
          "name": "id",
          "type": "bytes32"
        },
        {
          "indexed": true,
          "internalType": "address",
          "name": "sender",
          "type": "address"
        },
        {
          "indexed": false,
          "internalType": "int128",
          "name": "amount0",
          "type": "int128"
        },
        {
          "indexed": false,
          "internalType": "int128",
          "name": "amount1",
          "type": "int128"
        },
        {
          "indexed": false,
          "internalType": "uint160",
          "name": "sqrtPriceX96",
          "type": "uint160"
        },
        {
          "indexed": false,
          "internalType": "uint128",
          "name": "liquidity",
          "type": "uint128"
        },
        {
          "indexed": false,
          "internalType": "int24",
          "name": "tick",
          "type": "int24"
        },
        {
          "indexed": false,
          "internalType": "uint24",
          "name": "fee",
          "type": "uint24"
        }
      ],
      "name": "Swap",
      "type": "event"
    },
    {
      "anonymous": false,
      "inputs": [
        {
          "indexed": true,
          "internalType": "address",
          "name": "operator",
          "type": "address"
        },
        {
          "indexed": true,
          "internalType": "address",
          "name": "from",
          "type": "address"
        },
        {
          "indexed": true,
          "internalType": "address",
          "name": "to",
          "type": "address"
        },
        {
          "indexed": false,
          "internalType": "uint256[]",
          "name": "ids",
          "type": "uint256[]"
        },
        {
          "indexed": false,
          "internalType": "uint256[]",
          "name": "values",
          "type": "uint256[]"
        }
      ],
      "name": "TransferBatch",
      "type": "event"
    },
    {
      "anonymous": false,
      "inputs": [
        {
          "indexed": true,
          "internalType": "address",
          "name": "operator",
          "type": "address"
        },
        {
          "indexed": true,
          "internalType": "address",
          "name": "from",
          "type": "address"
        },
        {
          "indexed": true,
          "internalType": "address",
          "name": "to",
          "type": "address"
        },
        {
          "indexed": false,
          "internalType": "uint256",
          "name": "id",
          "type": "uint256"
        },
        {
          "indexed": false,
          "internalType": "uint256",
          "name": "value",
          "type": "uint256"
        }
      ],
      "name": "TransferSingle",
      "type": "event"
    },
    {
      "anonymous": false,
      "inputs": [
        {
          "indexed": false,
          "internalType": "string",
          "name": "value",
          "type": "string"
        },
        {
          "indexed": true,
          "internalType": "uint256",
          "name": "id",
          "type": "uint256"
        }
      ],
      "name": "URI",
      "type": "event"
    },
    {
      "inputs": [],
      "name": "MAX_TICK_SPACING",
      "outputs": [
        {
          "internalType": "int24",
          "name": "",
          "type": "int24"
        }
      ],
      "stateMutability": "view",
      "type": "function"
    },
    {
      "inputs": [],
      "name": "MIN_PROTOCOL_FEE_DENOMINATOR",
      "outputs": [
        {
          "internalType": "uint8",
          "name": "",
          "type": "uint8"
        }
      ],
      "stateMutability": "view",
      "type": "function"
    },
    {
      "inputs": [],
      "name": "MIN_TICK_SPACING",
      "outputs": [
        {
          "internalType": "int24",
          "name": "",
          "type": "int24"
        }
      ],
      "stateMutability": "view",
      "type": "function"
    },
    {
      "inputs": [
        {
          "internalType": "address",
          "name": "account",
          "type": "address"
        },
        {
          "internalType": "uint256",
          "name": "id",
          "type": "uint256"
        }
      ],
      "name": "balanceOf",
      "outputs": [
        {
          "internalType": "uint256",
          "name": "",
          "type": "uint256"
        }
      ],
      "stateMutability": "view",
      "type": "function"
    },
    {
      "inputs": [
        {
          "internalType": "address[]",
          "name": "accounts",
          "type": "address[]"
        },
        {
          "internalType": "uint256[]",
          "name": "ids",
          "type": "uint256[]"
        }
      ],
      "name": "balanceOfBatch",
      "outputs": [
        {
          "internalType": "uint256[]",
          "name": "",
          "type": "uint256[]"
        }
      ],
      "stateMutability": "view",
      "type": "function"
    },
    {
      "inputs": [
        {
          "internalType": "address",
          "name": "recipient",
          "type": "address"
        },
        {
          "internalType": "Currency",
          "name": "currency",
          "type": "address"
        },
        {
          "internalType": "uint256",
          "name": "amount",
          "type": "uint256"
        }
      ],
      "name": "collectHookFees",
      "outputs": [
        {
          "internalType": "uint256",
          "name": "amountCollected",
          "type": "uint256"
        }
      ],
      "stateMutability": "nonpayable",
      "type": "function"
    },
    {
      "inputs": [
        {
          "internalType": "address",
          "name": "recipient",
          "type": "address"
        },
        {
          "internalType": "Currency",
          "name": "currency",
          "type": "address"
        },
        {
          "internalType": "uint256",
          "name": "amount",
          "type": "uint256"
        }
      ],
      "name": "collectProtocolFees",
      "outputs": [
        {
          "internalType": "uint256",
          "name": "amountCollected",
          "type": "uint256"
        }
      ],
      "stateMutability": "nonpayable",
      "type": "function"
    },
    {
      "inputs": [
        {
          "internalType": "address",
          "name": "locker",
          "type": "address"
        },
        {
          "internalType": "Currency",
          "name": "currency",
          "type": "address"
        }
      ],
      "name": "currencyDelta",
      "outputs": [
        {
          "internalType": "int256",
          "name": "currencyDelta",
          "type": "int256"
        }
      ],
      "stateMutability": "view",
      "type": "function"
    },
    {
      "inputs": [
        {
          "components": [
            {
              "internalType": "Currency",
              "name": "currency0",
              "type": "address"
            },
            {
              "internalType": "Currency",
              "name": "currency1",
              "type": "address"
            },
            {
              "internalType": "uint24",
              "name": "fee",
              "type": "uint24"
            },
            {
              "internalType": "int24",
              "name": "tickSpacing",
              "type": "int24"
            },
            {
              "internalType": "contract IHooks",
              "name": "hooks",
              "type": "address"
            }
          ],
          "internalType": "struct PoolKey",
          "name": "key",
          "type": "tuple"
        },
        {
          "internalType": "uint256",
          "name": "amount0",
          "type": "uint256"
        },
        {
          "internalType": "uint256",
          "name": "amount1",
          "type": "uint256"
        },
        {
          "internalType": "bytes",
          "name": "hookData",
          "type": "bytes"
        }
      ],
      "name": "donate",
      "outputs": [
        {
          "internalType": "BalanceDelta",
          "name": "delta",
          "type": "int256"
        }
      ],
      "stateMutability": "nonpayable",
      "type": "function"
    },
    {
      "inputs": [
        {
          "internalType": "bytes32",
          "name": "slot",
          "type": "bytes32"
        }
      ],
      "name": "extsload",
      "outputs": [
        {
          "internalType": "bytes32",
          "name": "value",
          "type": "bytes32"
        }
      ],
      "stateMutability": "view",
      "type": "function"
    },
    {
      "inputs": [
        {
          "internalType": "bytes32",
          "name": "startSlot",
          "type": "bytes32"
        },
        {
          "internalType": "uint256",
          "name": "nSlots",
          "type": "uint256"
        }
      ],
      "name": "extsload",
      "outputs": [
        {
          "internalType": "bytes",
          "name": "",
          "type": "bytes"
        }
      ],
      "stateMutability": "view",
      "type": "function"
    },
    {
      "inputs": [
        {
          "internalType": "PoolId",
          "name": "id",
          "type": "bytes32"
        },
        {
          "internalType": "address",
          "name": "_owner",
          "type": "address"
        },
        {
          "internalType": "int24",
          "name": "tickLower",
          "type": "int24"
        },
        {
          "internalType": "int24",
          "name": "tickUpper",
          "type": "int24"
        }
      ],
      "name": "getLiquidity",
      "outputs": [
        {
          "internalType": "uint128",
          "name": "liquidity",
          "type": "uint128"
        }
      ],
      "stateMutability": "view",
      "type": "function"
    },
    {
      "inputs": [
        {
          "internalType": "PoolId",
          "name": "id",
          "type": "bytes32"
        }
      ],
      "name": "getLiquidity",
      "outputs": [
        {
          "internalType": "uint128",
          "name": "liquidity",
          "type": "uint128"
        }
      ],
      "stateMutability": "view",
      "type": "function"
    },
    {
      "inputs": [
        {
          "internalType": "uint256",
          "name": "i",
          "type": "uint256"
        }
      ],
      "name": "getLock",
      "outputs": [
        {
          "internalType": "address",
          "name": "locker",
          "type": "address"
        }
      ],
      "stateMutability": "view",
      "type": "function"
    },
    {
      "inputs": [
        {
          "internalType": "PoolId",
          "name": "id",
          "type": "bytes32"
        },
        {
          "internalType": "address",
          "name": "owner",
          "type": "address"
        },
        {
          "internalType": "int24",
          "name": "tickLower",
          "type": "int24"
        },
        {
          "internalType": "int24",
          "name": "tickUpper",
          "type": "int24"
        }
      ],
      "name": "getPosition",
      "outputs": [
        {
          "components": [
            {
              "internalType": "uint128",
              "name": "liquidity",
              "type": "uint128"
            },
            {
              "internalType": "uint256",
              "name": "feeGrowthInside0LastX128",
              "type": "uint256"
            },
            {
              "internalType": "uint256",
              "name": "feeGrowthInside1LastX128",
              "type": "uint256"
            }
          ],
          "internalType": "struct Position.Info",
          "name": "position",
          "type": "tuple"
        }
      ],
      "stateMutability": "view",
      "type": "function"
    },
    {
      "inputs": [
        {
          "internalType": "PoolId",
          "name": "id",
          "type": "bytes32"
        }
      ],
      "name": "getSlot0",
      "outputs": [
        {
          "internalType": "uint160",
          "name": "sqrtPriceX96",
          "type": "uint160"
        },
        {
          "internalType": "int24",
          "name": "tick",
          "type": "int24"
        },
        {
          "internalType": "uint8",
          "name": "protocolSwapFee",
          "type": "uint8"
        },
        {
          "internalType": "uint8",
          "name": "protocolWithdrawFee",
          "type": "uint8"
        },
        {
          "internalType": "uint8",
          "name": "hookSwapFee",
          "type": "uint8"
        },
        {
          "internalType": "uint8",
          "name": "hookWithdrawFee",
          "type": "uint8"
        }
      ],
      "stateMutability": "view",
      "type": "function"
    },
    {
      "inputs": [
        {
          "internalType": "address",
          "name": "hookAddress",
          "type": "address"
        },
        {
          "internalType": "Currency",
          "name": "currency",
          "type": "address"
        }
      ],
      "name": "hookFeesAccrued",
      "outputs": [
        {
          "internalType": "uint256",
          "name": "",
          "type": "uint256"
        }
      ],
      "stateMutability": "view",
      "type": "function"
    },
    {
      "inputs": [
        {
          "components": [
            {
              "internalType": "Currency",
              "name": "currency0",
              "type": "address"
            },
            {
              "internalType": "Currency",
              "name": "currency1",
              "type": "address"
            },
            {
              "internalType": "uint24",
              "name": "fee",
              "type": "uint24"
            },
            {
              "internalType": "int24",
              "name": "tickSpacing",
              "type": "int24"
            },
            {
              "internalType": "contract IHooks",
              "name": "hooks",
              "type": "address"
            }
          ],
          "internalType": "struct PoolKey",
          "name": "key",
          "type": "tuple"
        },
        {
          "internalType": "uint160",
          "name": "sqrtPriceX96",
          "type": "uint160"
        },
        {
          "internalType": "bytes",
          "name": "hookData",
          "type": "bytes"
        }
      ],
      "name": "initialize",
      "outputs": [
        {
          "internalType": "int24",
          "name": "tick",
          "type": "int24"
        }
      ],
      "stateMutability": "nonpayable",
      "type": "function"
    },
    {
      "inputs": [
        {
          "internalType": "address",
          "name": "account",
          "type": "address"
        },
        {
          "internalType": "address",
          "name": "operator",
          "type": "address"
        }
      ],
      "name": "isApprovedForAll",
      "outputs": [
        {
          "internalType": "bool",
          "name": "",
          "type": "bool"
        }
      ],
      "stateMutability": "view",
      "type": "function"
    },
    {
      "inputs": [
        {
          "internalType": "bytes",
          "name": "data",
          "type": "bytes"
        }
      ],
      "name": "lock",
      "outputs": [
        {
          "internalType": "bytes",
          "name": "result",
          "type": "bytes"
        }
      ],
      "stateMutability": "nonpayable",
      "type": "function"
    },
    {
      "inputs": [],
      "name": "lockData",
      "outputs": [
        {
          "internalType": "uint128",
          "name": "length",
          "type": "uint128"
        },
        {
          "internalType": "uint128",
          "name": "nonzeroDeltaCount",
          "type": "uint128"
        }
      ],
      "stateMutability": "view",
      "type": "function"
    },
    {
      "inputs": [
        {
          "internalType": "Currency",
          "name": "currency",
          "type": "address"
        },
        {
          "internalType": "address",
          "name": "to",
          "type": "address"
        },
        {
          "internalType": "uint256",
          "name": "amount",
          "type": "uint256"
        }
      ],
      "name": "mint",
      "outputs": [],
      "stateMutability": "nonpayable",
      "type": "function"
    },
    {
      "inputs": [
        {
          "components": [
            {
              "internalType": "Currency",
              "name": "currency0",
              "type": "address"
            },
            {
              "internalType": "Currency",
              "name": "currency1",
              "type": "address"
            },
            {
              "internalType": "uint24",
              "name": "fee",
              "type": "uint24"
            },
            {
              "internalType": "int24",
              "name": "tickSpacing",
              "type": "int24"
            },
            {
              "internalType": "contract IHooks",
              "name": "hooks",
              "type": "address"
            }
          ],
          "internalType": "struct PoolKey",
          "name": "key",
          "type": "tuple"
        },
        {
          "components": [
            {
              "internalType": "int24",
              "name": "tickLower",
              "type": "int24"
            },
            {
              "internalType": "int24",
              "name": "tickUpper",
              "type": "int24"
            },
            {
              "internalType": "int256",
              "name": "liquidityDelta",
              "type": "int256"
            }
          ],
          "internalType": "struct IPoolManager.ModifyPositionParams",
          "name": "params",
          "type": "tuple"
        },
        {
          "internalType": "bytes",
          "name": "hookData",
          "type": "bytes"
        }
      ],
      "name": "modifyPosition",
      "outputs": [
        {
          "internalType": "BalanceDelta",
          "name": "delta",
          "type": "int256"
        }
      ],
      "stateMutability": "nonpayable",
      "type": "function"
    },
    {
      "inputs": [
        {
          "internalType": "address",
          "name": "",
          "type": "address"
        },
        {
          "internalType": "address",
          "name": "",
          "type": "address"
        },
        {
          "internalType": "uint256[]",
          "name": "ids",
          "type": "uint256[]"
        },
        {
          "internalType": "uint256[]",
          "name": "values",
          "type": "uint256[]"
        },
        {
          "internalType": "bytes",
          "name": "",
          "type": "bytes"
        }
      ],
      "name": "onERC1155BatchReceived",
      "outputs": [
        {
          "internalType": "bytes4",
          "name": "",
          "type": "bytes4"
        }
      ],
      "stateMutability": "nonpayable",
      "type": "function"
    },
    {
      "inputs": [
        {
          "internalType": "address",
          "name": "",
          "type": "address"
        },
        {
          "internalType": "address",
          "name": "",
          "type": "address"
        },
        {
          "internalType": "uint256",
          "name": "id",
          "type": "uint256"
        },
        {
          "internalType": "uint256",
          "name": "value",
          "type": "uint256"
        },
        {
          "internalType": "bytes",
          "name": "",
          "type": "bytes"
        }
      ],
      "name": "onERC1155Received",
      "outputs": [
        {
          "internalType": "bytes4",
          "name": "",
          "type": "bytes4"
        }
      ],
      "stateMutability": "nonpayable",
      "type": "function"
    },
    {
      "inputs": [],
      "name": "owner",
      "outputs": [
        {
          "internalType": "address",
          "name": "",
          "type": "address"
        }
      ],
      "stateMutability": "view",
      "type": "function"
    },
    {
      "inputs": [
        {
          "internalType": "PoolId",
          "name": "id",
          "type": "bytes32"
        }
      ],
      "name": "pools",
      "outputs": [
        {
          "components": [
            {
              "internalType": "uint160",
              "name": "sqrtPriceX96",
              "type": "uint160"
            },
            {
              "internalType": "int24",
              "name": "tick",
              "type": "int24"
            },
            {
              "internalType": "uint8",
              "name": "protocolSwapFee",
              "type": "uint8"
            },
            {
              "internalType": "uint8",
              "name": "protocolWithdrawFee",
              "type": "uint8"
            },
            {
              "internalType": "uint8",
              "name": "hookSwapFee",
              "type": "uint8"
            },
            {
              "internalType": "uint8",
              "name": "hookWithdrawFee",
              "type": "uint8"
            }
          ],
          "internalType": "struct Pool.Slot0",
          "name": "slot0",
          "type": "tuple"
        },
        {
          "internalType": "uint256",
          "name": "feeGrowthGlobal0X128",
          "type": "uint256"
        },
        {
          "internalType": "uint256",
          "name": "feeGrowthGlobal1X128",
          "type": "uint256"
        },
        {
          "internalType": "uint128",
          "name": "liquidity",
          "type": "uint128"
        }
      ],
      "stateMutability": "view",
      "type": "function"
    },
    {
      "inputs": [],
      "name": "protocolFeeController",
      "outputs": [
        {
          "internalType": "contract IProtocolFeeController",
          "name": "",
          "type": "address"
        }
      ],
      "stateMutability": "view",
      "type": "function"
    },
    {
      "inputs": [
        {
          "internalType": "Currency",
          "name": "currency",
          "type": "address"
        }
      ],
      "name": "protocolFeesAccrued",
      "outputs": [
        {
          "internalType": "uint256",
          "name": "",
          "type": "uint256"
        }
      ],
      "stateMutability": "view",
      "type": "function"
    },
    {
      "inputs": [
        {
          "internalType": "Currency",
          "name": "currency",
          "type": "address"
        }
      ],
      "name": "reservesOf",
      "outputs": [
        {
          "internalType": "uint256",
          "name": "",
          "type": "uint256"
        }
      ],
      "stateMutability": "view",
      "type": "function"
    },
    {
      "inputs": [
        {
          "internalType": "address",
          "name": "from",
          "type": "address"
        },
        {
          "internalType": "address",
          "name": "to",
          "type": "address"
        },
        {
          "internalType": "uint256[]",
          "name": "ids",
          "type": "uint256[]"
        },
        {
          "internalType": "uint256[]",
          "name": "values",
          "type": "uint256[]"
        },
        {
          "internalType": "bytes",
          "name": "data",
          "type": "bytes"
        }
      ],
      "name": "safeBatchTransferFrom",
      "outputs": [],
      "stateMutability": "nonpayable",
      "type": "function"
    },
    {
      "inputs": [
        {
          "internalType": "address",
          "name": "from",
          "type": "address"
        },
        {
          "internalType": "address",
          "name": "to",
          "type": "address"
        },
        {
          "internalType": "uint256",
          "name": "id",
          "type": "uint256"
        },
        {
          "internalType": "uint256",
          "name": "value",
          "type": "uint256"
        },
        {
          "internalType": "bytes",
          "name": "data",
          "type": "bytes"
        }
      ],
      "name": "safeTransferFrom",
      "outputs": [],
      "stateMutability": "nonpayable",
      "type": "function"
    },
    {
      "inputs": [
        {
          "internalType": "address",
          "name": "operator",
          "type": "address"
        },
        {
          "internalType": "bool",
          "name": "approved",
          "type": "bool"
        }
      ],
      "name": "setApprovalForAll",
      "outputs": [],
      "stateMutability": "nonpayable",
      "type": "function"
    },
    {
      "inputs": [
        {
          "components": [
            {
              "internalType": "Currency",
              "name": "currency0",
              "type": "address"
            },
            {
              "internalType": "Currency",
              "name": "currency1",
              "type": "address"
            },
            {
              "internalType": "uint24",
              "name": "fee",
              "type": "uint24"
            },
            {
              "internalType": "int24",
              "name": "tickSpacing",
              "type": "int24"
            },
            {
              "internalType": "contract IHooks",
              "name": "hooks",
              "type": "address"
            }
          ],
          "internalType": "struct PoolKey",
          "name": "key",
          "type": "tuple"
        }
      ],
      "name": "setHookFees",
      "outputs": [],
      "stateMutability": "nonpayable",
      "type": "function"
    },
    {
      "inputs": [
        {
          "internalType": "address",
          "name": "_owner",
          "type": "address"
        }
      ],
      "name": "setOwner",
      "outputs": [],
      "stateMutability": "nonpayable",
      "type": "function"
    },
    {
      "inputs": [
        {
          "internalType": "contract IProtocolFeeController",
          "name": "controller",
          "type": "address"
        }
      ],
      "name": "setProtocolFeeController",
      "outputs": [],
      "stateMutability": "nonpayable",
      "type": "function"
    },
    {
      "inputs": [
        {
          "components": [
            {
              "internalType": "Currency",
              "name": "currency0",
              "type": "address"
            },
            {
              "internalType": "Currency",
              "name": "currency1",
              "type": "address"
            },
            {
              "internalType": "uint24",
              "name": "fee",
              "type": "uint24"
            },
            {
              "internalType": "int24",
              "name": "tickSpacing",
              "type": "int24"
            },
            {
              "internalType": "contract IHooks",
              "name": "hooks",
              "type": "address"
            }
          ],
          "internalType": "struct PoolKey",
          "name": "key",
          "type": "tuple"
        }
      ],
      "name": "setProtocolFees",
      "outputs": [],
      "stateMutability": "nonpayable",
      "type": "function"
    },
    {
      "inputs": [
        {
          "internalType": "Currency",
          "name": "currency",
          "type": "address"
        }
      ],
      "name": "settle",
      "outputs": [
        {
          "internalType": "uint256",
          "name": "paid",
          "type": "uint256"
        }
      ],
      "stateMutability": "payable",
      "type": "function"
    },
    {
      "inputs": [
        {
          "internalType": "bytes4",
          "name": "interfaceId",
          "type": "bytes4"
        }
      ],
      "name": "supportsInterface",
      "outputs": [
        {
          "internalType": "bool",
          "name": "",
          "type": "bool"
        }
      ],
      "stateMutability": "view",
      "type": "function"
    },
    {
      "inputs": [
        {
          "components": [
            {
              "internalType": "Currency",
              "name": "currency0",
              "type": "address"
            },
            {
              "internalType": "Currency",
              "name": "currency1",
              "type": "address"
            },
            {
              "internalType": "uint24",
              "name": "fee",
              "type": "uint24"
            },
            {
              "internalType": "int24",
              "name": "tickSpacing",
              "type": "int24"
            },
            {
              "internalType": "contract IHooks",
              "name": "hooks",
              "type": "address"
            }
          ],
          "internalType": "struct PoolKey",
          "name": "key",
          "type": "tuple"
        },
        {
          "components": [
            {
              "internalType": "bool",
              "name": "zeroForOne",
              "type": "bool"
            },
            {
              "internalType": "int256",
              "name": "amountSpecified",
              "type": "int256"
            },
            {
              "internalType": "uint160",
              "name": "sqrtPriceLimitX96",
              "type": "uint160"
            }
          ],
          "internalType": "struct IPoolManager.SwapParams",
          "name": "params",
          "type": "tuple"
        },
        {
          "internalType": "bytes",
          "name": "hookData",
          "type": "bytes"
        }
      ],
      "name": "swap",
      "outputs": [
        {
          "internalType": "BalanceDelta",
          "name": "delta",
          "type": "int256"
        }
      ],
      "stateMutability": "nonpayable",
      "type": "function"
    },
    {
      "inputs": [
        {
          "internalType": "Currency",
          "name": "currency",
          "type": "address"
        },
        {
          "internalType": "address",
          "name": "to",
          "type": "address"
        },
        {
          "internalType": "uint256",
          "name": "amount",
          "type": "uint256"
        }
      ],
      "name": "take",
      "outputs": [],
      "stateMutability": "nonpayable",
      "type": "function"
    },
    {
      "inputs": [
        {
          "internalType": "uint256",
          "name": "",
          "type": "uint256"
        }
      ],
      "name": "uri",
      "outputs": [
        {
          "internalType": "string",
          "name": "",
          "type": "string"
        }
      ],
      "stateMutability": "view",
      "type": "function"
    },
    {
      "stateMutability": "payable",
      "type": "receive"
    }
  ],
  "bytecode": {
    "object": "0x60c06040523480156200001157600080fd5b5060405162006b7e38038062006b7e8339810160408190526200003491620000af565b60408051602081018252600080825280546001600160a01b0319163390811782559251919284929091907fb532073b38c83145e3e5135377a08bf9aab55bc0fd7c1179cd4fb995d2a5159c908290a36080523060a05262000095816200009d565b50506200023a565b6006620000ab82826200016e565b5050565b600060208284031215620000c257600080fd5b5051919050565b634e487b7160e01b600052604160045260246000fd5b600181811c90821680620000f457607f821691505b6020821081036200011557634e487b7160e01b600052602260045260246000fd5b50919050565b601f8211156200016957600081815260208120601f850160051c81016020861015620001445750805b601f850160051c820191505b81811015620001655782815560010162000150565b5050505b505050565b81516001600160401b038111156200018a576200018a620000c9565b620001a2816200019b8454620000df565b846200011b565b602080601f831160018114620001da5760008415620001c15750858301515b600019600386901b1c1916600185901b17855562000165565b600085815260208120601f198616915b828110156200020b57888601518255948401946001909101908401620001ea565b50858210156200022a5787850151600019600388901b60f8161c191681555b5050505050600190811b01905550565b60805160a0516169176200026760003960006123880152600081816126ce015261273101526169176000f3fe6080604052600436106102545760003560e01c806384e41c5e11610139578063c6c3bbe6116100b6578063f02de3b21161007a578063f02de3b214610939578063f23a6e6114610959578063f242432a14610979578063f3cd914c14610999578063f8fcd156146109b9578063fa6793d514610a0457600080fd5b8063c6c3bbe6146107d2578063c815641c146107f2578063d68f4dd1146108d9578063e985e9c5146108f9578063effd18c01461091957600080fd5b8063a54b2831116100fd578063a54b28311461064b578063af440f8214610683578063b4c41939146106a3578063b5217bb4146106db578063bc197c811461079957600080fd5b806384e41c5e146105725780638da5cb5b1461059957806393c85a21146105d157806397e8cd4e146105fe578063a22cb4651461062b57600080fd5b80632d771389116101d257806360460f061161019657806360460f06146104c957806361ae449a146104df578063695c5bf5146104ff5780636a256b291461051f57806381548319146105325780638161b8741461055257600080fd5b80632d771389146104045780632eb2c2d61461042457806333aa955b1461044457806335fd631a1461047c5780634e1273f41461049c57600080fd5b80630e89341c116102195780630e89341c1461035857806313af4035146103855780631e2eaeaf146103a5578063234266d7146103c4578063282076cc146103e457600080fd5b8062fdd58e1461026057806301ffc9a714610293578063048d9c70146102c357806307eff0dd1461030e5780630b0d9c091461033657600080fd5b3661025b57005b600080fd5b34801561026c57600080fd5b5061028061027b366004615716565b610a3d565b6040519081526020015b60405180910390f35b34801561029f57600080fd5b506102b36102ae366004615758565b610a67565b604051901515815260200161028a565b3480156102cf57600080fd5b506102e36102de366004615787565b610ab7565b6040805182516001600160801b0316815260208084015190820152918101519082015260600161028a565b34801561031a57600080fd5b50610323600181565b60405160029190910b815260200161028a565b34801561034257600080fd5b506103566103513660046157d6565b610b37565b005b34801561036457600080fd5b50610378610373366004615817565b610be0565b60405161028a9190615880565b34801561039157600080fd5b506103566103a0366004615893565b610c74565b3480156103b157600080fd5b506102806103c0366004615817565b5490565b3480156103d057600080fd5b506102806103df366004615a10565b610cfa565b3480156103f057600080fd5b506103566103ff366004615a79565b610edf565b34801561041057600080fd5b5061035661041f366004615893565b610f5c565b34801561043057600080fd5b5061035661043f366004615b9b565b610fdb565b34801561045057600080fd5b5061046461045f366004615787565b611042565b6040516001600160801b03909116815260200161028a565b34801561048857600080fd5b50610378610497366004615c48565b611072565b3480156104a857600080fd5b506104bc6104b7366004615c6a565b6110f1565b60405161028a9190615d66565b3480156104d557600080fd5b50610323617fff81565b3480156104eb57600080fd5b506102806104fa366004615d79565b6111bd565b34801561050b57600080fd5b5061032361051a366004615e15565b61157a565b61028061052d366004615893565b6118e7565b34801561053e57600080fd5b5061037861054d366004615e60565b61199b565b34801561055e57600080fd5b5061028061056d3660046157d6565b611ad4565b34801561057e57600080fd5b50610587600481565b60405160ff909116815260200161028a565b3480156105a557600080fd5b506000546105b9906001600160a01b031681565b6040516001600160a01b03909116815260200161028a565b3480156105dd57600080fd5b506102806105ec366004615893565b60096020526000908152604090205481565b34801561060a57600080fd5b50610280610619366004615893565b60016020526000908152604090205481565b34801561063757600080fd5b50610356610646366004615eb1565b611b8d565b34801561065757600080fd5b50610280610666366004615ee6565b600860209081526000928352604080842090915290825290205481565b34801561068f57600080fd5b5061035661069e366004615a79565b611b9c565b3480156106af57600080fd5b506102806106be366004615ee6565b600260209081526000928352604080842090915290825290205481565b3480156106e757600080fd5b506107896106f6366004615817565b600a60209081526000918252604091829020825160c08101845281546001600160a01b0381168252600160a01b8104600290810b9483019490945260ff600160b81b8204811695830195909552600160c01b810485166060830152600160c81b810485166080830152600160d01b900490931660a08401526001810154918101546003909101546001600160801b031684565b60405161028a9493929190615f1f565b3480156107a557600080fd5b506107b96107b4366004615fdb565b611c0f565b6040516001600160e01b0319909116815260200161028a565b3480156107de57600080fd5b506103566107ed3660046157d6565b611c9a565b3480156107fe57600080fd5b5061089461080d366004615817565b6000908152600a6020908152604091829020825160c08101845290546001600160a01b038116808352600160a01b820460020b93830184905260ff600160b81b83048116958401869052600160c01b8304811660608501819052600160c81b8404821660808601819052600160d01b90940490911660a09094018490529095939493909290565b604080516001600160a01b03909716875260029590950b602087015260ff938416948601949094529082166060850152811660808401521660a082015260c00161028a565b3480156108e557600080fd5b506105b96108f4366004615817565b611d15565b34801561090557600080fd5b506102b3610914366004615ee6565b611d41565b34801561092557600080fd5b506102806109343660046157d6565b611d6f565b34801561094557600080fd5b506003546105b9906001600160a01b031681565b34801561096557600080fd5b506107b9610974366004616099565b611e14565b34801561098557600080fd5b50610356610994366004616114565b611e53565b3480156109a557600080fd5b506102806109b436600461617c565b611eb2565b3480156109c557600080fd5b506007546109e4906001600160801b0380821691600160801b90041682565b604080516001600160801b0393841681529290911660208301520161028a565b348015610a1057600080fd5b50610464610a1f366004615817565b6000908152600a60205260409020600301546001600160801b031690565b60008181526004602090815260408083206001600160a01b03861684529091529020545b92915050565b60006001600160e01b03198216636cdb3d1360e11b1480610a9857506001600160e01b031982166303a24d0760e21b145b80610a6157506301ffc9a760e01b6001600160e01b0319831614610a61565b610ae4604051806060016040528060006001600160801b0316815260200160008152602001600081525090565b6000858152600a60205260409020610b0190600601858585612320565b6040805160608101825282546001600160801b03168152600183015460208201526002909201549082015290505b949350505050565b610b3f61237d565b6000610b4b60076123c8565b9050336001600160a01b03821614610b86576040516313d2c13360e21b81526001600160a01b03821660048201526024015b60405180910390fd5b610b9884610b9384612415565b61242f565b6001600160a01b03841660009081526009602052604081208054849290610bc0908490616218565b90915550610bda90506001600160a01b0385168484612517565b50505050565b606060068054610bef9061622b565b80601f0160208091040260200160405190810160405280929190818152602001828054610c1b9061622b565b8015610c685780601f10610c3d57610100808354040283529160200191610c68565b820191906000526020600020905b815481529060010190602001808311610c4b57829003601f168201915b50505050509050919050565b6000546001600160a01b03163314610c9f576040516348f5c3ed60e01b815260040160405180910390fd5b600080546040516001600160a01b03808516939216917fb532073b38c83145e3e5135377a08bf9aab55bc0fd7c1179cd4fb995d2a5159c91a3600080546001600160a01b0319166001600160a01b0392909216919091179055565b6000610d0461237d565b6000610d1060076123c8565b9050336001600160a01b03821614610d46576040516313d2c13360e21b81526001600160a01b0382166004820152602401610b7d565b6080870151600160991b1615610dfd576080870151604051635b54587d60e11b808252916001600160a01b03169063b6a8b0fa90610d929033908c908c908c908c908c906004016162d1565b6020604051808303816000875af1158015610db1573d6000803e3d6000fd5b505050506040513d601f19601f82011682018060405250810190610dd5919061630f565b6001600160e01b03191614610dfd57604051631e048e1d60e01b815260040160405180910390fd5b610e128686610e0b8a6125b1565b91906125d5565b9150610e1e8783612697565b6080870151600160981b1615610ed557608087015160405163e1b4af6960e01b808252916001600160a01b03169063e1b4af6990610e6a9033908c908c908c908c908c906004016162d1565b6020604051808303816000875af1158015610e89573d6000803e3d6000fd5b505050506040513d601f19601f82011682018060405250810190610ead919061630f565b6001600160e01b03191614610ed557604051631e048e1d60e01b815260040160405180910390fd5b5095945050505050565b600080610eeb836126b6565b915091506000610efa846127ba565b6000818152600a60205260409020909150610f169084846127ea565b6040805160ff80861682528416602082015282917f68cf4f9df39d4652e13d29995bfc957b7194ed36d602f1328593dcedcdfa626c91015b60405180910390a250505050565b6000546001600160a01b03163314610f87576040516348f5c3ed60e01b815260040160405180910390fd5b600380546001600160a01b0319166001600160a01b0383169081179091556040519081527fb4bd8ef53df690b9943d3318996006dbb82a25f54719d8c8035b516a2a5b8acc9060200160405180910390a150565b336001600160a01b0386168114801590610ffc5750610ffa8682611d41565b155b1561102d5760405163711bec9160e11b81526001600160a01b03808316600483015287166024820152604401610b7d565b61103a8686868686612841565b505050505050565b6000848152600a6020526040812061105f90600601858585612320565b546001600160801b031695945050505050565b6060600061108183602061632c565b6001600160401b03811115611098576110986158b0565b6040519080825280601f01601f1916602001820160405280156110c2576020820181803683370190505b50905060005b838110156110e95780850154602060018301028301526001810190506110c8565b509392505050565b606081518351146111225781518351604051635b05999160e01b815260048101929092526024820152604401610b7d565b600083516001600160401b0381111561113d5761113d6158b0565b604051908082528060200260200182016040528015611166578160200160208202803683370190505b50905060005b84518110156110e95760208082028601015161119090602080840287010151610a3d565b8282815181106111a2576111a2616343565b60209081029190910101526111b681616359565b905061116c565b60006111c761237d565b60006111d360076123c8565b9050336001600160a01b03821614611209576040516313d2c13360e21b81526001600160a01b0382166004820152602401610b7d565b60808601516001609d1b16156112be57608086015160405163fe9a6f4560e01b808252916001600160a01b03169063fe9a6f45906112539033908b908b908b908b90600401616372565b6020604051808303816000875af1158015611272573d6000803e3d6000fd5b505050506040513d601f19601f82011682018060405250810190611296919061630f565b6001600160e01b031916146112be57604051631e048e1d60e01b815260040160405180910390fd5b60006112c9876127ba565b90506112f66040518060800160405280600081526020016000815260200160008152602001600081525090565b6113616040518060a00160405280336001600160a01b03168152602001896000015160020b8152602001896020015160020b815260200161133a8a604001516128a8565b600f0b815260608b015160020b6020918201526000858152600a90915260409020906128be565b90945090506113708885612697565b80511561139a57805188516001600160a01b03166000908152600160205260409020805490910190555b6020810151156113ce57602080820151898201516001600160a01b0316600090815260019092526040909120805490910190555b6040810151156114145760408082015160808a01516001600160a01b039081166000908152600260209081528482208d5190931682529190915291909120805490910190555b60608101511561145957606081015160808901516001600160a01b039081166000908152600260209081526040808320828e0151909416835292905220805490910190555b60808801516001609c1b16156115105760808801516040516330b7cdef60e01b808252916001600160a01b0316906330b7cdef906114a59033908d908d908b908e908e906004016163d4565b6020604051808303816000875af11580156114c4573d6000803e3d6000fd5b505050506040513d601f19601f820116820180604052508101906114e8919061630f565b6001600160e01b0319161461151057604051631e048e1d60e01b815260040160405180910390fd5b865160208801516040808a01519051339386937fc54f65a0367b92850ef8e90f7e302da8b0a137ab343132a9b8d0e63e684bf53c9361156793600293840b81529190920b6020820152604081019190915260600190565b60405180910390a3505050949350505050565b6040840151600090620f4240620fffff909116106115ab57604051637e2df70960e11b815260040160405180910390fd5b6060850151617fff60029190910b13156115d857604051635815aee160e11b815260040160405180910390fd5b600160020b856060015160020b121561160457604051630b7f3b4b60e11b815260040160405180910390fd5b845160208601516001600160a01b0390811691161115611637576040516305a25e7160e11b815260040160405180910390fd5b61165b856040015186608001516001600160a01b0316612dc190919063ffffffff16565b611689576080850151604051630732d7b560e51b81526001600160a01b039091166004820152602401610b7d565b60808501516001609f1b161561173e5760808501516040516301a206c160e51b808252916001600160a01b031690633440d820906116d39033908a908a908a908a90600401616431565b6020604051808303816000875af11580156116f2573d6000803e3d6000fd5b505050506040513d601f19601f82011682018060405250810190611716919061630f565b6001600160e01b0319161461173e57604051631e048e1d60e01b815260040160405180910390fd5b6000611749866127ba565b9050600080611757886126b6565b915091506000806117678a612e42565b6000878152600a602052604090209193509150611788908a86858786612f51565b60808b01519096506001609e1b16156118525763a910f80f60e01b6001600160e01b0319168a608001516001600160a01b031663a910f80f338d8d8b8e8e6040518763ffffffff1660e01b81526004016117e79695949392919061646d565b6020604051808303816000875af1158015611806573d6000803e3d6000fd5b505050506040513d601f19601f8201168201806040525081019061182a919061630f565b6001600160e01b0319161461185257604051631e048e1d60e01b815260040160405180910390fd5b89602001516001600160a01b03168a600001516001600160a01b0316867f3fd553db44f207b1f41348cfc4d251860814af9eadc470e8e7895e4d120511f48d604001518e606001518f608001516040516118d29392919062ffffff93909316835260029190910b60208301526001600160a01b0316604082015260600190565b60405180910390a45050505050949350505050565b60006118f161237d565b60006118fd60076123c8565b9050336001600160a01b03821614611933576040516313d2c13360e21b81526001600160a01b0382166004820152602401610b7d565b6001600160a01b0383166000818152600960205260409020549061195690613046565b6001600160a01b038516600090815260096020526040902081905561197c908290616218565b92506119948461198b85612415565b610b93906164b4565b5050919050565b60606119ee60073381546001600160801b039081167f760a9a962ae3d184e99c0483cf5684fb3170f47116ca4f445c50209da4f4f90681019290925582546001600160801b031916600190920116179055565b6040516355b148ff60e11b8152339063ab6291fe90611a1390869086906004016164da565b6000604051808303816000875af1158015611a32573d6000803e3d6000fd5b505050506040513d6000823e601f3d908101601f19168201604052611a5a91908101906164ee565b6007549091506001600160801b0316600103611aab57600754600160801b90046001600160801b031615611aa157604051635212cba160e01b815260040160405180910390fd5b6000600755610a61565b600780546001600160801b031981166001600160801b0391821660001901909116179055610a61565b600080546001600160a01b03163314801590611afb57506003546001600160a01b03163314155b15611b19576040516348f5c3ed60e01b815260040160405180910390fd5b8115611b255781611b3f565b6001600160a01b0383166000908152600160205260409020545b6001600160a01b038416600090815260016020526040812080549293508392909190611b6c908490616218565b90915550611b8690506001600160a01b0384168583612517565b9392505050565b611b983383836130c5565b5050565b600080611ba883612e42565b915091506000611bb7846127ba565b6000818152600a60205260409020909150611bd390848461315b565b6040805160ff80861682528416602082015282917f7f755ba49aaf4c878728e1cd51f7b56f649f123b45e0d9346ab32fe3cbdd14839101610f4e565b6000333014611c31576040516314fe96b960e21b815260040160405180910390fd5b60005b86811015611c8457611c7c611c5e898984818110611c5457611c54616343565b9050602002013590565b878784818110611c7057611c70616343565b905060200201356131b2565b600101611c34565b5063bc197c8160e01b9998505050505050505050565b611ca261237d565b6000611cae60076123c8565b9050336001600160a01b03821614611ce4576040516313d2c13360e21b81526001600160a01b0382166004820152602401610b7d565b611cf184610b9384612415565b610bda836001600160a01b03861684604051806020016040528060008152506131d3565b6000610a61827f760a9a962ae3d184e99c0483cf5684fb3170f47116ca4f445c50209da4f4f906015490565b6001600160a01b03918216600090815260056020908152604080832093909416825291909152205460ff1690565b6000338215611d7e5782611da5565b6001600160a01b038082166000908152600260209081526040808320938816835292905220545b91506001600160a01b03851615611dbc5784611dbe565b805b6001600160a01b038083166000908152600260209081526040808320938916835292905290812080549297508492909190611dfa908490616218565b909155506110e990506001600160a01b0385168684612517565b6000333014611e36576040516314fe96b960e21b815260040160405180910390fd5b611e4085856131b2565b5063f23a6e6160e01b9695505050505050565b336001600160a01b0386168114801590611e745750611e728682611d41565b155b15611ea55760405163711bec9160e11b81526001600160a01b03808316600483015287166024820152604401610b7d565b61103a8686868686613230565b6000611ebc61237d565b6000611ec860076123c8565b9050336001600160a01b03821614611efe576040516313d2c13360e21b81526001600160a01b0382166004820152602401610b7d565b60808601516001609b1b1615611fb35760808601516040516315d7892d60e21b808252916001600160a01b03169063575e24b490611f489033908b908b908b908b9060040161655b565b6020604051808303816000875af1158015611f67573d6000803e3d6000fd5b505050506040513d601f19601f82011682018060405250810190611f8b919061630f565b6001600160e01b03191614611fb357604051631e048e1d60e01b815260040160405180910390fd5b604086015160009062800000161561206f5786608001516001600160a01b0316632ab7a3e233898989896040518663ffffffff1660e01b8152600401611ffd95949392919061655b565b6020604051808303816000875af115801561201c573d6000803e3d6000fd5b505050506040513d601f19601f8201168201806040525081019061204091906165a5565b9050620f42408162ffffff161061206a57604051637e2df70960e11b815260040160405180910390fd5b61207b565b506040860151620fffff165b6000806120866156b6565b60006120918b6127ba565b90506121016040518060a001604052808762ffffff1681526020018d6060015160020b81526020018c60000151151581526020018c6020015181526020018c604001516001600160a01b0316815250600a60008481526020019081526020016000206132be90919063ffffffff16565b929950909550935091506121158b88612697565b83156121575783600160008c60000151612133578d60200151612136565b8d515b6001600160a01b031681526020810191909152604001600020805490910190555b82156121b05760808b01516001600160a01b031660009081526002602052604081208b5185929061218c578d6020015161218f565b8d515b6001600160a01b031681526020810191909152604001600020805490910190555b60808b01516001609a1b16156122775763b47b2fb160e01b6001600160e01b0319168b608001516001600160a01b031663b47b2fb1338e8e8c8f8f6040518763ffffffff1660e01b815260040161220c969594939291906165c2565b6020604051808303816000875af115801561222b573d6000803e3d6000fd5b505050506040513d601f19601f8201168201806040525081019061224f919061630f565b6001600160e01b0319161461227757604051631e048e1d60e01b815260040160405180910390fd5b33817f40e9cecb9f5f1f1c5b9c97dec2917b7ee92e57ba5563708daca94dd84ad7112f6122a48a60801c90565b8a60408088015160a089015160608a0151925161230a959493908e90600f96870b81529490950b60208501526001600160a01b039290921660408401526001600160801b0316606083015260020b608082015262ffffff9190911660a082015260c00190565b60405180910390a3505050505050949350505050565b6040805160609490941b6bffffffffffffffffffffffff191660208086019190915260e893841b60348601529190921b60378401528151601a818503018152603a9093018252825192810192909220600090815292909152902090565b306001600160a01b037f000000000000000000000000000000000000000000000000000000000000000016146123c6576040516306c4a1c760e11b815260040160405180910390fd5b565b8054600090610a61906123e6906001906001600160801b031661660c565b6001600160801b03167f760a9a962ae3d184e99c0483cf5684fb3170f47116ca4f445c50209da4f4f906015490565b600060016001607f1b0382111561242b57600080fd5b5090565b80600f0b60000361243e575050565b600061244a60076123c8565b6001600160a01b038082166000908152600860209081526040808320938816835292905290812054919250612483600f85900b83616633565b9050806000036124b957600780546000196001600160801b03600160801b808404821692909201811690910291161790556124e8565b816000036124e8576007805460016001600160801b03600160801b808404821692909201811690910291161790555b6001600160a01b0392831660009081526008602090815260408083209790951682529590955291909320555050565b60006001600160a01b0384166125565760008060008085875af190508061255157604051633d2cec6f60e21b815260040160405180910390fd5b610bda565b60405163a9059cbb60e01b6000528360045282602452602060006044600080895af13d15601f3d1160016000511416171691506000606052806040525080610bda57604051633c9fd93960e21b815260040160405180910390fd5b6000600a60006125c0846127ba565b81526020019081526020016000209050919050565b60038301546000906001600160801b031681036126055760405163a74f97ab60e01b815260040160405180910390fd5b61262d61261184612415565b61261a84612415565b6001600160801b031660809190911b1790565b90508215612660576003840154612654908490600160801b906001600160801b0316613adb565b60018501805490910190555b8115611b86576003840154612685908390600160801b906001600160801b0316613adb565b60028501805490910190559392505050565b81516126a790610b938360801c90565b611b988260200151610b938390565b60035460009081906001600160a01b0316156127b5577f00000000000000000000000000000000000000000000000000000000000000005a101561270d57604051630f724b8160e11b815260040160405180910390fd5b60035460405163d6ec458560e01b81526001600160a01b039091169063d6ec4585907f00000000000000000000000000000000000000000000000000000000000000009061275f90879060040161665b565b60408051808303818786fa93505050508015612798575060408051601f3d908101601f191682019092526127959181019061667a565b60015b156127a35790925090505b6127ac82613b7d565b6127b581613b7d565b915091565b6000816040516020016127cd919061665b565b604051602081830303815290604052805190602001209050919050565b82546001600160a01b03166000036128155760405163486aa30760e01b815260040160405180910390fd5b825461ffff60b81b1916600160b81b60ff9384160260ff60c01b191617600160c01b9190921602179055565b6001600160a01b03841661286b57604051632bfa23e760e11b815260006004820152602401610b7d565b6001600160a01b03851661289457604051626a0d4560e21b815260006004820152602401610b7d565b6128a18585858585613bf1565b5050505050565b80600f81900b81146128b957600080fd5b919050565b60006128eb6040518060800160405280600081526020016000815260200160008152602001600081525090565b83546001600160a01b03166000036129165760405163486aa30760e01b815260040160405180910390fd5b61292883602001518460400151613c44565b6040805160c081018252600080825260208201819052918101829052606081018290526080810182905260a0810182905281906060860151600f0b15612aab5761297d87876020015188606001516000613ce0565b6001600160801b0316602083015215158152604086015160608701516129a69189916001613ce0565b6001600160801b031660608084019190915290151560408301528601516000600f9190910b1315612a6a5760006129e08760800151613dba565b9050806001600160801b031682602001516001600160801b03161115612a2557602087015160405163b8e3c38560e01b815260029190910b6004820152602401610b7d565b806001600160801b031682606001516001600160801b03161115612a6857604080880151905163b8e3c38560e01b815260029190910b6004820152602401610b7d565b505b805115612a895760208601516080870151612a899160058a0191613de8565b806040015115612aab5760408601516080870151612aab9160058a0191613de8565b612abe8787602001518860400151613e87565b60a08301819052608083018290526060880151885160208a015160408b0151612afa95939492612af29260068f0192612320565b929190613f3e565b809350819450505060008660600151600f0b1215612b7757805115612b4657612b46878760200151600290810b6000908152600490920160205260408220828155600181018390550155565b806040015115612b7757604080870151600290810b600090815260048a016020529182208281556001810183905501555b506060850151600f0b15612d145760208501518654600291820b600160a01b90910490910b1215612bea57612be384612bde612bd8612bd3612bbc8a60200151614067565b612bc98b60400151614067565b8b6060015161438a565b6128a8565b60801b90565b6143c9565b9350612d14565b60408501518654600291820b600160a01b90910490910b1215612cde5785546040860151612c5e918691612bde91612c3391612bd3916001600160a01b031690612bc990614067565b61261a612bd3612c468b60200151614067565b8c5460608d01516001600160a01b03909116906143f3565b935060008560600151600f0b12612c915760608501516003870154612c8c91906001600160801b03166166a4565b612cb7565b8460600151612c9f906164b4565b6003870154612cb791906001600160801b031661660c565b6003870180546001600160801b0319166001600160801b0392909216919091179055612d14565b612d1184612bde600061261a612bd3612cfa8b60200151614067565b612d078c60400151614067565b8c606001516143f3565b93505b60008560600151600f0b128015612d3557508554600160d01b900460ff1615155b15612d9857612d448685614422565b9250612d9584612bde612d5a8660000151612415565b612d678760400151612415565b612d7191906166c4565b612d7e8760200151612415565b612d8b8860600151612415565b61261a91906166c4565b93505b612db684612db1612da885612415565b61261a85612415565b6145da565b935050509250929050565b60006001600160a01b03831615612e1957600160981b836001600160a01b0316101580612df2575062800000821615155b80612e01575062400000821615155b80612e1457506220000082161515611b86565b611b86565b628000008216158015612e2f5750624000008216155b8015611b86575050622000001615919050565b60408101516000908190624000001615612eca5782608001516001600160a01b0316630f485773846040518263ffffffff1660e01b8152600401612e86919061665b565b602060405180830381865afa158015612ea3573d6000803e3d6000fd5b505050506040513d601f19601f82011682018060405250810190612ec791906166f1565b91505b60408301516220000016156127b55782608001516001600160a01b03166339dfff16846040518263ffffffff1660e01b8152600401612f09919061665b565b602060405180830381865afa158015612f26573d6000803e3d6000fd5b505050506040513d601f19601f82011682018060405250810190612f4a91906166f1565b9050915091565b85546000906001600160a01b031615612f7d57604051637983c05160e01b815260040160405180910390fd5b612f8686614607565b6040805160c0810182526001600160a01b0398909816808952600283900b60208a015260ff97881691890182905294871660608901819052958716608089018190529390961660a090970187905287546001600160b81b031916909317600160a01b62ffffff8516021761ffff60b81b1916600160b81b90950260ff60c01b191694909417600160c01b9093029290921761ffff60c81b1916600160c81b90920260ff60d01b191691909117600160d01b90930292909217909255919050565b60006001600160a01b03821661305d575047919050565b6040516370a0823160e01b81523060048201526001600160a01b038316906370a0823190602401602060405180830381865afa1580156130a1573d6000803e3d6000fd5b505050506040513d601f19601f82011682018060405250810190610a61919061670c565b6001600160a01b0382166130ee5760405162ced3e160e81b815260006004820152602401610b7d565b6001600160a01b03838116600081815260056020908152604080832094871680845294825291829020805460ff191686151590811790915591519182527f17307eab39ab6107e8899845ad3d59bd9653f200f220920489ca2b5937696c31910160405180910390a3505050565b82546001600160a01b03166000036131865760405163486aa30760e01b815260040160405180910390fd5b825461ffff60c81b1916600160c81b60ff9384160260ff60d01b191617600160d01b9190921602179055565b6131c6306001600160a01b0384168361490c565b611b988261198b83612415565b6001600160a01b0384166131fd57604051632bfa23e760e11b815260006004820152602401610b7d565b6040805160018082526020820186905281830190815260608201859052608082019092529061103a600087848487613bf1565b6001600160a01b03841661325a57604051632bfa23e760e11b815260006004820152602401610b7d565b6001600160a01b03851661328357604051626a0d4560e21b815260006004820152602401610b7d565b604080516001808252602082018690528183019081526060820185905260808201909252906132b58787848487613bf1565b50505050505050565b60008060006132cb6156b6565b84606001516000036132f05760405163be8b850760e01b815260040160405180910390fd5b6040805160c08101825287546001600160a01b038116808352600160a01b820460020b602084015260ff600160b81b8304811694840194909452600160c01b820484166060840152600160c81b820484166080840152600160d01b90910490921660a0820152906000036133775760405163486aa30760e01b815260040160405180910390fd5b8560400151156134265780600001516001600160a01b031686608001516001600160a01b0316106133d55780516080870151604051637c9c6e8f60e01b81526001600160a01b03928316600482015291166024820152604401610b7d565b6401000276a36001600160a01b031686608001516001600160a01b031611613421576080860151604051639e4d7cc760e01b81526001600160a01b039091166004820152602401610b7d565b6134d5565b80600001516001600160a01b031686608001516001600160a01b03161161347a5780516080870151604051637c9c6e8f60e01b81526001600160a01b03928316600482015291166024820152604401610b7d565b73fffd8963efd1fc6a506488495d951d5263988d266001600160a01b031686608001516001600160a01b0316106134d5576080860151604051639e4d7cc760e01b81526001600160a01b039091166004820152602401610b7d565b6040805160608101825260038901546001600160801b0316815290870151600091906020820190613511576004846040015160ff16901c613522565b60108460400151613522919061673b565b60ff1681526020018860400151613544576004846080015160ff16901c613555565b60108460800151613555919061673b565b60ff16815250905060008088606001511390506040518060c00160405280896060015181526020016000815260200184600001516001600160a01b03168152602001846020015160020b815260200189604001516135b7578a600201546135bd565b8a600101545b815283516001600160801b03166020918201526040805160e0810182526000808252928101839052908101829052606081018290526080810182905260a0810182905260c08101919091529094505b845115801590613636575088608001516001600160a01b031685604001516001600160a01b031614155b156139cc576040808601516001600160a01b03168252606086015160208b0151918b01516136699260058e019291614974565b1515604083015260020b60208201819052620d89e719131561369457620d89e71960208201526136c8565b6136a1620d89e71961675d565b60020b816020015160020b13156136c8576136bf620d89e71961675d565b60020b60208201525b6136d58160200151614067565b6001600160a01b03166060820152604080860151908a01516137589190613718578a608001516001600160a01b031683606001516001600160a01b031611613736565b8a608001516001600160a01b031683606001516001600160a01b0316105b61374457826060015161374a565b8a608001515b60a088015188518d51614ab6565b60c085015260a084015260808301526001600160a01b0316604086015281156137ba5761378e8160c00151826080015101614ca8565b855103855260a08101516137a190614ca8565b85602001516137b09190616776565b60208601526137fd565b6137c78160a00151614ca8565b855101855260c081015160808201516137e8916137e391616796565b614ca8565b85602001516137f79190616633565b60208601525b602083015160ff1615613835576000836020015160ff168260c0015161382391906167a9565b60c08301805182900390529790970196505b604083015160ff161561386d576000836040015160ff168260c0015161385b91906167a9565b60c08301805182900390529690960195505b60a08501516001600160801b0316156138ac576138a08160c00151600160801b8760a001516001600160801b0316613adb565b60808601805190910190525b80606001516001600160a01b031685604001516001600160a01b031603613999578060400151156139705760006139188b83602001518c604001516138f5578d600101546138fb565b88608001515b8d6040015161390e578960800151614cbe565b8e60020154614cbe565b9050896040015115613928576000035b600081600f0b1261394857808660a0015161394391906166a4565b613960565b613951816164b4565b8660a00151613960919061660c565b6001600160801b031660a0870152505b886040015161398357806020015161398c565b60018160200151035b60020b606086015261360c565b80600001516001600160a01b031685604001516001600160a01b0316146139c75761398c8560400151614607565b61360c565b604085015160608601518b546001600160b81b031916600160a01b62ffffff909216919091026001600160a01b031916176001600160a01b03909116178a5560a085015183516001600160801b03918216911614613a4b5760a085015160038b0180546001600160801b0319166001600160801b039092169190911790555b886040015115613a6457608085015160018b0155613a6f565b608085015160028b01555b8115158960400151151503613aa857613aa1613a9486600001518b60600151036128a8565b61261a87602001516128a8565b9750613ace565b613acb613ab886602001516128a8565b61261a87600001518c60600151036128a8565b97505b5050505092959194509250565b60008383028160001985870982811083820303915050808411613afd57600080fd5b80600003613b1057508290049050611b86565b6000848688096000868103871696879004966002600389028118808a02820302808a02820302808a02820302808a02820302808a02820302808a02909103029181900381900460010186841190950394909402919094039290920491909117919091029150509392505050565b60ff811615613bee576000613b9360108361673b565b9050600f600483901c1660ff821615801590613bb25750600460ff8316105b80613bcd575060ff811615801590613bcd5750600460ff8216105b15613beb57604051637e2df70960e11b815260040160405180910390fd5b50505b50565b613bfd85858585614cfa565b6001600160a01b038416156128a15782513390600103613c365760208481015190840151613c2f838989858589614f1d565b505061103a565b61103a818787878787615041565b8060020b8260020b12613c785760405163c4433ed560e01b8152600283810b600483015282900b6024820152604401610b7d565b620d89e719600283900b1215613ca75760405163d5e2f7ab60e01b8152600283900b6004820152602401610b7d565b613cb4620d89e71961675d565b60020b8160020b1315611b985760405163035aeeff60e31b8152600282900b6004820152602401610b7d565b600283900b6000908152600485016020526040812080548291906001600160801b0381169060801c600f87900b8413613d2257613d1d87836166a4565b613d35565b613d2b876164b4565b613d35908361660c565b6001600160801b0380821615908416801591909114159650909450600003613d83578854600160a01b9004600290810b9089900b13613d83576001808a0154908401556002808a0154908401555b600086613d9957613d9488836166c4565b613da3565b613da388836167bd565b90508060801b851784555050505094509492505050565b6000621b13d08201600290810b9083900b6001600160801b030281613de157613de1616725565b0492915050565b8060020b8260020b81613dfd57613dfd616725565b0760020b15613e2d57604051636a6c79f360e11b8152600283810b600483015282900b6024820152604401610b7d565b600080613e5b8360020b8560020b81613e4857613e48616725565b0560020b600881901d9161010090910790565b600191820b60009081526020979097526040909620805460ff9097169190911b90951890945550505050565b600282810b600081815260048601602052604080822085850b835290822087549294859492939192600160a01b909204900b90811215613ee0578160010154836001015403945081600201548360020154039350613f33565b8560020b8160020b12613f0c578260010154826001015403945082600201548260020154039350613f33565b81600101548360010154896001015403039450816002015483600201548960020154030393505b505050935093915050565b6040805160608101825285546001600160801b0316815260018601546020820152600286015491810191909152600090819081600f87900b8103613faf5781516001600160801b0316600003613fa757604051632bbfae4960e21b815260040160405180910390fd5b508051613fe4565b600087600f0b12613fcc578151613fc79088906166a4565b613fe1565b613fd5876164b4565b8251613fe1919061660c565b90505b6140068260200151870383600001516001600160801b0316600160801b613adb565b935061402a8260400151860383600001516001600160801b0316600160801b613adb565b925086600f0b6000146140515787546001600160801b0319166001600160801b0382161788555b5050600186019390935560029094015591929050565b60008060008360020b1261407e578260020b614086565b8260020b6000035b9050620d89e88111156140ac576040516333a3bdff60e21b815260040160405180910390fd5b6000816001166000036140c357600160801b6140d5565b6ffffcb933bd6fad37aa2d162d1a5940015b70ffffffffffffffffffffffffffffffffff1690506002821615614109576ffff97272373d413259a46990580e213a0260801c5b6004821615614128576ffff2e50f5f656932ef12357cf3c7fdcc0260801c5b6008821615614147576fffe5caca7e10e4e61c3624eaa0941cd00260801c5b6010821615614166576fffcb9843d60f6159c9db58835c9266440260801c5b6020821615614185576fff973b41fa98c081472e6896dfb254c00260801c5b60408216156141a4576fff2ea16466c96a3843ec78b326b528610260801c5b60808216156141c3576ffe5dee046a99a2a811c461f1969c30530260801c5b6101008216156141e3576ffcbe86c7900a88aedcffc83b479aa3a40260801c5b610200821615614203576ff987a7253ac413176f2b074cf7815e540260801c5b610400821615614223576ff3392b0822b70005940c7a398e4b70f30260801c5b610800821615614243576fe7159475a2c29b7443b29c7fa6e889d90260801c5b611000821615614263576fd097f3bdfd2022b8845ad8f792aa58250260801c5b612000821615614283576fa9f746462d870fdf8a65dc1f90e061e50260801c5b6140008216156142a3576f70d869a156d2a1b890bb3df62baf32f70260801c5b6180008216156142c3576f31be135f97d08fd981231505542fcfa60260801c5b620100008216156142e4576f09aa508b5b7a84e1c677de54f3e99bc90260801c5b62020000821615614304576e5d6af8dedb81196699c329225ee6040260801c5b62040000821615614323576d2216e584f5fa1ea926041bedfe980260801c5b62080000821615614340576b048a170391f7dc42444e8fa20260801c5b60008460020b131561436157806000198161435d5761435d616725565b0490505b640100000000810615614375576001614378565b60005b60ff16602082901c0192505050919050565b60008082600f0b126143ab576143a66137e3858585600161512a565b610b2f565b6143be6137e3858585600003600061512a565b600003949350505050565b6000611b866143d88360801c90565b6143e28560801c90565b6143ec91906166c4565b8385612d8b565b60008082600f0b1261440f576143a66137e385858560016151e1565b6143be6137e385858560000360006151e1565b61444d6040518060800160405280600081526020016000815260200160008152602001600081525090565b60006144598360801c90565b8454909150839060009061447990601090600160d01b900460ff1661673b565b8654909150600f600160d01b820460041c16906000906144a590601090600160c01b900460ff1661673b565b8854909150600f600160c01b90910460041c81169060009087900b1280156144d0575060008460ff16115b156144fb5760ff84166144e2876164b4565b6144ec91906167ea565b6001600160801b031660408801525b600085600f0b128015614511575060008360ff16115b1561453c5760ff8316614523866164b4565b61452d91906167ea565b6001600160801b031660608801525b60008260ff16118015614553575060008760400151115b15614583578160ff16876040015161456b91906167a9565b80885260408801805161457f908390616218565b9052505b60008160ff1611801561459a575060008760600151115b156145ce578060ff1687606001516145b291906167a9565b602088018190526060880180516145ca908390616218565b9052505b50505050505092915050565b6000611b866145e98360801c90565b6145f38560801c90565b6145fd91906167bd565b61261a84866167bd565b60006401000276a36001600160a01b0383161080614642575073fffd8963efd1fc6a506488495d951d5263988d266001600160a01b03831610155b156146605760405163015680db60e11b815260040160405180910390fd5b640100000000600160c01b03602083901b166001600160801b03811160071b81811c6001600160401b03811160061b90811c63ffffffff811160051b90811c61ffff811160041b90811c60ff8111600390811b91821c600f811160021b90811c918211600190811b92831c979088119617909417909217179091171717608081106146f357607f810383901c91506146fd565b80607f0383901b91505b908002607f81811c60ff83811c9190911c800280831c81831c1c800280841c81841c1c800280851c81851c1c800280861c81861c1c800280871c81871c1c800280881c81881c1c800280891c81891c1c8002808a1c818a1c1c8002808b1c818b1c1c8002808c1c818c1c1c8002808d1c818d1c1c8002808e1c9c81901c9c909c1c80029c8d901c9e9d607f198f0160401b60c09190911c678000000000000000161760c19b909b1c674000000000000000169a909a1760c29990991c672000000000000000169890981760c39790971c671000000000000000169690961760c49590951c670800000000000000169490941760c59390931c670400000000000000169290921760c69190911c670200000000000000161760c79190911c670100000000000000161760c89190911c6680000000000000161760c99190911c6640000000000000161760ca9190911c6620000000000000161760cb9190911c6610000000000000161760cc9190911c6608000000000000161760cd9190911c66040000000000001617693627a301d71055774c8581026f028f6481ab7f045a5af012a19d003aa9198101608090811d906fdb2df09e81959a81455e260799a0632f8301901d600281810b9083900b146148fd57886001600160a01b03166148e282614067565b6001600160a01b031611156148f757816148ff565b806148ff565b815b9998505050505050505050565b6001600160a01b03831661493557604051626a0d4560e21b815260006004820152602401610b7d565b604080516001808252602082018590528183019081526060820184905260a082019092526000608082018181529192916128a191879185908590613bf1565b60008060008460020b8660020b8161498e5761498e616725565b05905060008660020b1280156149bb57508460020b8660020b816149b4576149b4616725565b0760020b15155b156149c557600019015b8315614a3957600281900b600881901d600181810b600090815260208b9052604090205461010090930760ff81169190911b80016000190192831680151595509192909185614a1b57888360ff16860302614a2e565b88614a2582615268565b840360ff168603025b965050505050614aac565b600181810160020b600881901d80830b600090815260208b9052604090205461010090920760ff81169390931b600019011991821680151595509092919085614a8f57888360ff0360ff16866001010102614aa5565b8883614a9a83615308565b0360ff168660010101025b9650505050505b5094509492505050565b60008080806001600160a01b03808916908a161015818712801590614b3b576000614aef8989620f42400362ffffff16620f4240613adb565b905082614b0857614b038c8c8c60016151e1565b614b15565b614b158b8d8c600161512a565b9550858110614b26578a9650614b35565b614b328c8b83866153f1565b96505b50614b85565b81614b5257614b4d8b8b8b600061512a565b614b5f565b614b5f8a8c8b60006151e1565b9350838860000310614b7357899550614b85565b614b828b8a8a6000038561543d565b95505b6001600160a01b038a8116908716148215614be857808015614ba45750815b614bba57614bb5878d8c600161512a565b614bbc565b855b9550808015614bc9575081155b614bdf57614bda878d8c60006151e1565b614be1565b845b9450614c32565b808015614bf25750815b614c0857614c038c888c60016151e1565b614c0a565b855b9550808015614c17575081155b614c2d57614c288c888c600061512a565b614c2f565b845b94505b81158015614c4257508860000385115b15614c4e578860000394505b818015614c6d57508a6001600160a01b0316876001600160a01b031614155b15614c7c578589039350614c99565b614c96868962ffffff168a620f42400362ffffff16615489565b93505b50505095509550955095915050565b60006001600160ff1b0382111561242b57600080fd5b600292830b600090815260049094016020526040909320600181018054909203909155908101805490920390915554600160801b9004600f0b90565b8051825114614d295781518151604051635b05999160e01b815260048101929092526024820152604401610b7d565b3360005b8351811015614e3e576020818102858101820151908501909101516001600160a01b03881615614de45760008281526004602090815260408083206001600160a01b038c16845290915290205481811015614dbb576040516303dee4c560e01b81526001600160a01b038a166004820152602481018290526044810183905260648101849052608401610b7d565b60008381526004602090815260408083206001600160a01b038d16845290915290209082900390555b6001600160a01b03871615614e2b5760008281526004602090815260408083206001600160a01b038b16845290915281208054839290614e25908490616796565b90915550505b505080614e3790616359565b9050614d2d565b508251600103614ebf5760208301516000906020840151909150856001600160a01b0316876001600160a01b0316846001600160a01b03167fc3d58168c5ae7397731d063d5bbf3d657854427343f4c083240f7aacaa2d0f628585604051614eb0929190918252602082015260400190565b60405180910390a450506128a1565b836001600160a01b0316856001600160a01b0316826001600160a01b03167f4a39dc06d4c0dbc64b70af90fd698a233a518aa5d07e595d983b8c0526c8f7fb8686604051614f0e929190616810565b60405180910390a45050505050565b6001600160a01b0384163b1561103a5760405163f23a6e6160e01b81526001600160a01b0385169063f23a6e6190614f619089908990889088908890600401616835565b6020604051808303816000875af1925050508015614f9c575060408051601f3d908101601f19168201909252614f999181019061630f565b60015b615005573d808015614fca576040519150601f19603f3d011682016040523d82523d6000602084013e614fcf565b606091505b508051600003614ffd57604051632bfa23e760e11b81526001600160a01b0386166004820152602401610b7d565b805181602001fd5b6001600160e01b0319811663f23a6e6160e01b146132b557604051632bfa23e760e11b81526001600160a01b0386166004820152602401610b7d565b6001600160a01b0384163b1561103a5760405163bc197c8160e01b81526001600160a01b0385169063bc197c8190615085908990899088908890889060040161686f565b6020604051808303816000875af19250505080156150c0575060408051601f3d908101601f191682019092526150bd9181019061630f565b60015b6150ee573d808015614fca576040519150601f19603f3d011682016040523d82523d6000602084013e614fcf565b6001600160e01b0319811663bc197c8160e01b146132b557604051632bfa23e760e11b81526001600160a01b0386166004820152602401610b7d565b6000836001600160a01b0316856001600160a01b0316111561514a579293925b600160601b600160e01b03606084901b166001600160a01b03868603811690871661517457600080fd5b836151aa57866001600160a01b03166151978383896001600160a01b0316613adb565b816151a4576151a4616725565b046151d6565b6151d66151c18383896001600160a01b0316615489565b886001600160a01b0316808204910615150190565b979650505050505050565b6000836001600160a01b0316856001600160a01b03161115615201579293925b81615235576152306001600160801b03841661521d87876168c1565b6001600160a01b0316600160601b613adb565b61525f565b61525f6001600160801b03841661524c87876168c1565b6001600160a01b0316600160601b615489565b95945050505050565b600080821161527657600080fd5b600160801b821061528957608091821c91015b6801000000000000000082106152a157604091821c91015b64010000000082106152b557602091821c91015b6201000082106152c757601091821c91015b61010082106152d857600891821c91015b601082106152e857600491821c91015b600482106152f857600291821c91015b600282106128b957600101919050565b600080821161531657600080fd5b5060ff6001600160801b0382161561533157607f1901615339565b608082901c91505b6001600160401b0382161561535157603f1901615359565b604082901c91505b63ffffffff82161561536e57601f1901615376565b602082901c91505b61ffff82161561538957600f1901615391565b601082901c91505b60ff8216156153a357600719016153ab565b600882901c91505b600f8216156153bd57600319016153c5565b600482901c91505b60038216156153d757600119016153df565b600282901c91505b60018216156128b95760001901919050565b600080856001600160a01b03161161540857600080fd5b6000846001600160801b03161161541e57600080fd5b816154305761523085858560016154c9565b61525f85858560016155b0565b600080856001600160a01b03161161545457600080fd5b6000846001600160801b03161161546a57600080fd5b8161547c5761523085858560006155b0565b61525f85858560006154c9565b6000615496848484613adb565b9050600082806154a8576154a8616725565b8486091115611b865760001981106154bf57600080fd5b6001019392505050565b6000811561553b5760006001600160a01b038411156154ff576154fa84600160601b876001600160801b0316613adb565b615516565b6155166001600160801b038616606086901b6167a9565b905061553361552e826001600160a01b038916616796565b6156a0565b915050610b2f565b60006001600160a01b038411156155695761556484600160601b876001600160801b0316615489565b615586565b615586606085901b6001600160801b038716808204910615150190565b905080866001600160a01b03161161559d57600080fd5b615533816001600160a01b038816616218565b6000826000036155c1575083610b2f565b600160601b600160e01b03606085901b168215615653576001600160a01b038616848102908582816155f5576155f5616725565b0403615625578181018281106156235761561983896001600160a01b031683615489565b9350505050610b2f565b505b50615533818561563e6001600160a01b038a16836167a9565b6156489190616796565b808204910615150190565b6001600160a01b0386168481029085828161567057615670616725565b0414801561567d57508082115b61568657600080fd5b80820361561961552e846001600160a01b038b1684615489565b806001600160a01b03811681146128b957600080fd5b6040518060c00160405280600081526020016000815260200160006001600160a01b03168152602001600060020b81526020016000815260200160006001600160801b031681525090565b6001600160a01b0381168114613bee57600080fd5b6000806040838503121561572957600080fd5b823561573481615701565b946020939093013593505050565b6001600160e01b031981168114613bee57600080fd5b60006020828403121561576a57600080fd5b8135611b8681615742565b8035600281900b81146128b957600080fd5b6000806000806080858703121561579d57600080fd5b8435935060208501356157af81615701565b92506157bd60408601615775565b91506157cb60608601615775565b905092959194509250565b6000806000606084860312156157eb57600080fd5b83356157f681615701565b9250602084013561580681615701565b929592945050506040919091013590565b60006020828403121561582957600080fd5b5035919050565b60005b8381101561584b578181015183820152602001615833565b50506000910152565b6000815180845261586c816020860160208601615830565b601f01601f19169290920160200192915050565b602081526000611b866020830184615854565b6000602082840312156158a557600080fd5b8135611b8681615701565b634e487b7160e01b600052604160045260246000fd5b604051606081016001600160401b03811182821017156158e8576158e86158b0565b60405290565b604051601f8201601f191681016001600160401b0381118282101715615916576159166158b0565b604052919050565b62ffffff81168114613bee57600080fd5b600060a0828403121561594157600080fd5b60405160a081018181106001600160401b0382111715615963576159636158b0565b604052905080823561597481615701565b8152602083013561598481615701565b602082015260408301356159978161591e565b60408201526159a860608401615775565b606082015260808301356159bb81615701565b6080919091015292915050565b60008083601f8401126159da57600080fd5b5081356001600160401b038111156159f157600080fd5b602083019150836020828501011115615a0957600080fd5b9250929050565b60008060008060006101008688031215615a2957600080fd5b615a33878761592f565b945060a0860135935060c0860135925060e08601356001600160401b03811115615a5c57600080fd5b615a68888289016159c8565b969995985093965092949392505050565b600060a08284031215615a8b57600080fd5b611b86838361592f565b60006001600160401b03821115615aae57615aae6158b0565b5060051b60200190565b600082601f830112615ac957600080fd5b81356020615ade615ad983615a95565b6158ee565b82815260059290921b84018101918181019086841115615afd57600080fd5b8286015b84811015615b185780358352918301918301615b01565b509695505050505050565b60006001600160401b03821115615b3c57615b3c6158b0565b50601f01601f191660200190565b600082601f830112615b5b57600080fd5b8135615b69615ad982615b23565b818152846020838601011115615b7e57600080fd5b816020850160208301376000918101602001919091529392505050565b600080600080600060a08688031215615bb357600080fd5b8535615bbe81615701565b94506020860135615bce81615701565b935060408601356001600160401b0380821115615bea57600080fd5b615bf689838a01615ab8565b94506060880135915080821115615c0c57600080fd5b615c1889838a01615ab8565b93506080880135915080821115615c2e57600080fd5b50615c3b88828901615b4a565b9150509295509295909350565b60008060408385031215615c5b57600080fd5b50508035926020909101359150565b60008060408385031215615c7d57600080fd5b82356001600160401b0380821115615c9457600080fd5b818501915085601f830112615ca857600080fd5b81356020615cb8615ad983615a95565b82815260059290921b84018101918181019089841115615cd757600080fd5b948201945b83861015615cfe578535615cef81615701565b82529482019490820190615cdc565b96505086013592505080821115615d1457600080fd5b50615d2185828601615ab8565b9150509250929050565b600081518084526020808501945080840160005b83811015615d5b57815187529582019590820190600101615d3f565b509495945050505050565b602081526000611b866020830184615d2b565b600080600080848603610120811215615d9157600080fd5b615d9b878761592f565b94506060609f1982011215615daf57600080fd5b50615db86158c6565b615dc460a08701615775565b8152615dd260c08701615775565b602082015260e0860135604082015292506101008501356001600160401b03811115615dfd57600080fd5b615e09878288016159c8565b95989497509550505050565b60008060008060e08587031215615e2b57600080fd5b615e35868661592f565b935060a0850135615e4581615701565b925060c08501356001600160401b03811115615dfd57600080fd5b60008060208385031215615e7357600080fd5b82356001600160401b03811115615e8957600080fd5b615e95858286016159c8565b90969095509350505050565b803580151581146128b957600080fd5b60008060408385031215615ec457600080fd5b8235615ecf81615701565b9150615edd60208401615ea1565b90509250929050565b60008060408385031215615ef957600080fd5b8235615f0481615701565b91506020830135615f1481615701565b809150509250929050565b60006101208201905060018060a01b038651168252602086015160020b602083015260ff604087015116604083015260ff606087015116606083015260ff608087015116608083015260ff60a08701511660a08301528460c08301528360e083015261525f6101008301846001600160801b03169052565b60008083601f840112615fa957600080fd5b5081356001600160401b03811115615fc057600080fd5b6020830191508360208260051b8501011115615a0957600080fd5b60008060008060008060008060a0898b031215615ff757600080fd5b883561600281615701565b9750602089013561601281615701565b965060408901356001600160401b038082111561602e57600080fd5b61603a8c838d01615f97565b909850965060608b013591508082111561605357600080fd5b61605f8c838d01615f97565b909650945060808b013591508082111561607857600080fd5b506160858b828c016159c8565b999c989b5096995094979396929594505050565b60008060008060008060a087890312156160b257600080fd5b86356160bd81615701565b955060208701356160cd81615701565b9450604087013593506060870135925060808701356001600160401b038111156160f657600080fd5b61610289828a016159c8565b979a9699509497509295939492505050565b600080600080600060a0868803121561612c57600080fd5b853561613781615701565b9450602086013561614781615701565b9350604086013592506060860135915060808601356001600160401b0381111561617057600080fd5b615c3b88828901615b4a565b60008060008084860361012081121561619457600080fd5b61619e878761592f565b94506060609f19820112156161b257600080fd5b506161bb6158c6565b6161c760a08701615ea1565b815260c0860135602082015260e08601356161e181615701565b604082015292506101008501356001600160401b03811115615dfd57600080fd5b634e487b7160e01b600052601160045260246000fd5b81810381811115610a6157610a61616202565b600181811c9082168061623f57607f821691505b60208210810361625f57634e487b7160e01b600052602260045260246000fd5b50919050565b80516001600160a01b03908116835260208083015182169084015260408083015162ffffff169084015260608083015160020b9084015260809182015116910152565b81835281816020850137506000828201602090810191909152601f909101601f19169091010190565b6001600160a01b038716815260006101206162ef6020840189616265565b8660c08401528560e0840152806101008401526148ff81840185876162a8565b60006020828403121561632157600080fd5b8151611b8681615742565b8082028115828204841417610a6157610a61616202565b634e487b7160e01b600052603260045260246000fd5b60006001820161636b5761636b616202565b5060010190565b6001600160a01b038616815260006101406163906020840188616265565b8551600290810b60c08501526020870151900b60e084015260408601516101008401525b806101208401526163c881840185876162a8565b98975050505050505050565b6001600160a01b038716815260006101606163f26020840189616265565b8651600290810b60c08501526020880151900b60e084015260408701516101008401525b85610120840152806101408401526148ff81840185876162a8565b6001600160a01b038681168252600090610100906164526020850189616265565b861660c084015260e083018190526163c881840185876162a8565b6001600160a01b0387811682526000906101209061648e602085018a616265565b80881660c0850152508560020b60e0840152806101008401526148ff81840185876162a8565b600081600f0b60016001607f1b031981036164d1576164d1616202565b60000392915050565b602081526000610b2f6020830184866162a8565b60006020828403121561650057600080fd5b81516001600160401b0381111561651657600080fd5b8201601f8101841361652757600080fd5b8051616535615ad982615b23565b81815285602083850101111561654a57600080fd5b61525f826020830160208601615830565b6001600160a01b038616815260006101406165796020840188616265565b8551151560c0840152602086015160e084015260408601516001600160a01b03166101008401526163b4565b6000602082840312156165b757600080fd5b8151611b868161591e565b6001600160a01b038716815260006101606165e06020840189616265565b8651151560c0840152602087015160e084015260408701516001600160a01b0316610100840152616416565b6001600160801b0382811682821603908082111561662c5761662c616202565b5092915050565b808201828112600083128015821682158216171561665357616653616202565b505092915050565b60a08101610a618284616265565b805160ff811681146128b957600080fd5b6000806040838503121561668d57600080fd5b61669683616669565b9150615edd60208401616669565b6001600160801b0381811683821601908082111561662c5761662c616202565b600f81810b9083900b0160016001607f1b03811360016001607f1b031982121715610a6157610a61616202565b60006020828403121561670357600080fd5b611b8682616669565b60006020828403121561671e57600080fd5b5051919050565b634e487b7160e01b600052601260045260246000fd5b600060ff83168061674e5761674e616725565b8060ff84160691505092915050565b60008160020b627fffff1981036164d1576164d1616202565b818103600083128015838313168383128216171561662c5761662c616202565b80820180821115610a6157610a61616202565b6000826167b8576167b8616725565b500490565b600f82810b9082900b0360016001607f1b0319811260016001607f1b0382131715610a6157610a61616202565b60006001600160801b038084168061680457616804616725565b92169190910492915050565b6040815260006168236040830185615d2b565b828103602084015261525f8185615d2b565b6001600160a01b03868116825285166020820152604081018490526060810183905260a0608082018190526000906151d690830184615854565b6001600160a01b0386811682528516602082015260a06040820181905260009061689b90830186615d2b565b82810360608401526168ad8186615d2b565b905082810360808401526163c88185615854565b6001600160a01b0382811682821603908082111561662c5761662c61620256fea2646970667358221220c5b3d68f685efc69b80efa89199e4079ad6deceb592c6bd58a296e35ddeea3aa64736f6c63430008140033",
    "linkReferences": {}
  },
  "methodIdentifiers": {
    "MAX_TICK_SPACING()": "60460f06",
    "MIN_PROTOCOL_FEE_DENOMINATOR()": "84e41c5e",
    "MIN_TICK_SPACING()": "07eff0dd",
    "balanceOf(address,uint256)": "00fdd58e",
    "balanceOfBatch(address[],uint256[])": "4e1273f4",
    "collectHookFees(address,address,uint256)": "effd18c0",
    "collectProtocolFees(address,address,uint256)": "8161b874",
    "currencyDelta(address,address)": "a54b2831",
    "donate((address,address,uint24,int24,address),uint256,uint256,bytes)": "234266d7",
    "extsload(bytes32)": "1e2eaeaf",
    "extsload(bytes32,uint256)": "35fd631a",
    "getLiquidity(bytes32)": "fa6793d5",
    "getLiquidity(bytes32,address,int24,int24)": "33aa955b",
    "getLock(uint256)": "d68f4dd1",
    "getPosition(bytes32,address,int24,int24)": "048d9c70",
    "getSlot0(bytes32)": "c815641c",
    "hookFeesAccrued(address,address)": "b4c41939",
    "initialize((address,address,uint24,int24,address),uint160,bytes)": "695c5bf5",
    "isApprovedForAll(address,address)": "e985e9c5",
    "lock(bytes)": "81548319",
    "lockData()": "f8fcd156",
    "mint(address,address,uint256)": "c6c3bbe6",
    "modifyPosition((address,address,uint24,int24,address),(int24,int24,int256),bytes)": "61ae449a",
    "onERC1155BatchReceived(address,address,uint256[],uint256[],bytes)": "bc197c81",
    "onERC1155Received(address,address,uint256,uint256,bytes)": "f23a6e61",
    "owner()": "8da5cb5b",
    "pools(bytes32)": "b5217bb4",
    "protocolFeeController()": "f02de3b2",
    "protocolFeesAccrued(address)": "97e8cd4e",
    "reservesOf(address)": "93c85a21",
    "safeBatchTransferFrom(address,address,uint256[],uint256[],bytes)": "2eb2c2d6",
    "safeTransferFrom(address,address,uint256,uint256,bytes)": "f242432a",
    "setApprovalForAll(address,bool)": "a22cb465",
    "setHookFees((address,address,uint24,int24,address))": "af440f82",
    "setOwner(address)": "13af4035",
    "setProtocolFeeController(address)": "2d771389",
    "setProtocolFees((address,address,uint24,int24,address))": "282076cc",
    "settle(address)": "6a256b29",
    "supportsInterface(bytes4)": "01ffc9a7",
    "swap((address,address,uint24,int24,address),(bool,int256,uint160),bytes)": "f3cd914c",
    "take(address,address,uint256)": "0b0d9c09",
    "uri(uint256)": "0e89341c"
  },
  "id": 40
}